{
  "_format": "hh-sol-artifact-1",
  "contractName": "YourSolidityContract",
  "sourceName": "contracts/YourSolidityContract.sol",
  "abi": [
    {
      "inputs": [
        {
          "internalType": "string",
          "name": "arg",
          "type": "string"
        }
      ],
      "name": "get",
      "outputs": [
        {
          "internalType": "string",
          "name": "",
          "type": "string"
        }
      ],
      "stateMutability": "view",
      "type": "function"
    },
    {
      "inputs": [
        {
          "internalType": "string",
          "name": "",
          "type": "string"
        }
      ],
      "name": "notes",
      "outputs": [
        {
          "internalType": "string",
          "name": "",
          "type": "string"
        }
      ],
      "stateMutability": "view",
      "type": "function"
    },
    {
      "inputs": [
        {
          "internalType": "string",
          "name": "arg",
          "type": "string"
        },
        {
          "internalType": "string",
          "name": "note",
          "type": "string"
        }
      ],
      "name": "set",
      "outputs": [],
      "stateMutability": "nonpayable",
      "type": "function"
    }
  ],
  "bytecode": "0x608060405234801561001057600080fd5b50610551806100206000396000f3fe608060405234801561001057600080fd5b50600436106100415760003560e01c8063693ec85e14610046578063c1e5be821461006f578063e942b51614610082575b600080fd5b6100596100543660046102bf565b610097565b6040516100669190610320565b60405180910390f35b61005961007d3660046102bf565b610147565b610095610090366004610353565b6101ec565b005b60606000826040516100a991906103b7565b908152602001604051809103902080546100c2906103d3565b80601f01602080910402602001604051908101604052809291908181526020018280546100ee906103d3565b801561013b5780601f106101105761010080835404028352916020019161013b565b820191906000526020600020905b81548152906001019060200180831161011e57829003601f168201915b50505050509050919050565b80516020818301810180516000825292820191909301209152805461016b906103d3565b80601f0160208091040260200160405190810160405280929190818152602001828054610197906103d3565b80156101e45780601f106101b9576101008083540402835291602001916101e4565b820191906000526020600020905b8154815290600101906020018083116101c757829003601f168201915b505050505081565b806000836040516101fd91906103b7565b90815260200160405180910390209081610217919061045b565b505050565b634e487b7160e01b600052604160045260246000fd5b600082601f83011261024357600080fd5b813567ffffffffffffffff8082111561025e5761025e61021c565b604051601f8301601f19908116603f011681019082821181831017156102865761028661021c565b8160405283815286602085880101111561029f57600080fd5b836020870160208301376000602085830101528094505050505092915050565b6000602082840312156102d157600080fd5b813567ffffffffffffffff8111156102e857600080fd5b6102f484828501610232565b949350505050565b60005b838110156103175781810151838201526020016102ff565b50506000910152565b602081526000825180602084015261033f8160408501602087016102fc565b601f01601f19169190910160400192915050565b6000806040838503121561036657600080fd5b823567ffffffffffffffff8082111561037e57600080fd5b61038a86838701610232565b935060208501359150808211156103a057600080fd5b506103ad85828601610232565b9150509250929050565b600082516103c98184602087016102fc565b9190910192915050565b600181811c908216806103e757607f821691505b60208210810361040757634e487b7160e01b600052602260045260246000fd5b50919050565b601f82111561021757600081815260208120601f850160051c810160208610156104345750805b601f850160051c820191505b8181101561045357828155600101610440565b505050505050565b815167ffffffffffffffff8111156104755761047561021c565b6104898161048384546103d3565b8461040d565b602080601f8311600181146104be57600084156104a65750858301515b600019600386901b1c1916600185901b178555610453565b600085815260208120601f198616915b828110156104ed578886015182559484019460019091019084016104ce565b508582101561050b5787850151600019600388901b60f8161c191681555b5050505050600190811b0190555056fea26469706673582212201b2e1b9dc18d3b8ee44d1efe92c87063ed42b29c8f0a78a0cf356fc5e394279764736f6c63430008130033",
  "linkReferences": {},
  "deployedLinkReferences": {}
}